:100000000C94AC030C94C9030C94C9030C94C9035D
:100010000C94C9030C94C9030C94C9030C94C90330
:100020000C94C9030C94C9030C947C310C944E328B
:100030000C94C0270C94C9030C94C9030C94C903F5
:100040000C94C9030C94C9030C94C9030C94C90300
:100050000C94C9030C9428280C94C9030C94C9036C
:100060000C94C9030C94C9030C94C9030C94C903E0
:100070000C94C9030C94C9030C94C9030C94C903D0
:100080000C94C9030C94C9030C94C9030C94C903C0
:100090000C94C9030C94C9030C94C9030C94C903B0
:1000A0000C94C9030C94C9030C94C90321042404BF
:1000B00027042A042D042F0432049C06A106AB0653
:1000C0009F06A406A906A706ED07EF07FA07F107A2
:1000D000F307F507F707F907FC07FE0700080B0809
:1000E00002080408060808080A080D08F714FA149C
:1000F000FD1400150315061509150C150F1512151D
:100100001515171D171D491D491D801DA01D091F0F
:10011000671FE21D671F8F1E8F1E001F671F671F4F
:10012000611F9C1E9C1E9C1E9C1E9C1E9C1E9C1E39
:100130009C1E9C1E9C1E9C1E9C1E9C1E9C1E9C1EEF
:100140009C1EAD1EBA1EC11EC81ED21EF21FF21F7B
:1001500004200420FB1F042004200420F21FF21FAF
:100160000020042004200020BB32E232D433E232EB
:10017000D4332E335133D433A733B63305A84CCD03
:10018000B2D44EB93836A9020C50B9918688083CD1
:10019000A6AAAA2ABE000000803F6572676F646F3E
:1001A000785F657A2F6632313263306630363632A8
:1001B000383163346430363436204020302E362EC9
:1001C0003138302D32322D673338356465372D6440
:1001D00069727479000000F0A12E004C002A00E141
:1001E00000354100001E00140004001D6134002988
:1001F000621F001A0016001B00E1042A00200008FC
:10020000000700060050002C00210015000900190D
:10021000004F00E300220017000A000500000065FF
:1002200064500001530000006F0000E3004F000124
:1002300053000000670000E20023001C000B0011C7
:100240000000002961240018000D0010005200E297
:100250000025000C000E0036005100280026001278
:10026000000F0037002F002B002700130033423807
:1002700071300029712D0031003468E50001510012
:10028000002900010001000100010000003A001EE9
:100290000220022202010001003B001F0221022372
:1002A000020100C95C3C002F0226022F000100CA97
:1002B0005C3D00300227023000010001003E0031A9
:1002C00002350035020000C35C010001000000019E
:1002D000000000010001000100000001000000C258
:1002E0005C3F005200510024020000E05C4000240A
:1002F0000021001E00010001004100250022001F16
:10030000003700C55C42002600230020002700C6FD
:100310005C430025022D0231002E000100440045FF
:1003200000010001000100000001000100010001C6
:1003300000010000000100010001000100010001B6
:100340000001000100F2000100010001000100F0C5
:1003500000F1000100F400010001000100F30001C0
:1003600000F5000100010001000100010000000192
:100370000001000100000001000000010001000177
:100380000000000100000001000100010001000167
:1003900000000001000100010001000100A90001AE
:1003A00000010001000100AC00AA00B6000100013C
:1003B000000100AB00A800010001000100010001E4
:1003C000000100010001000100AE00010001000079
:1003D0000000000000000000002A2B2800000000A0
:1003E00000000000000000000000000029000000E4
:1003F000002C1E3420212224342627252E362D378A
:1004000038271E1F202122232425263333362E375A
:10041000381F0405060708090A0B0C0D0E0F1011F2
:1004200012131415161718191A1B1C1D2F313023FF
:100430002D350405060708090A0B0C0D0E0F1011C7
:1004400012131415161718191A1B1C1D2F313035CD
:100450004C00000000000000000000000000000050
:10046000000000000000000000000000000000008C
:100470000000010101010101000101010100000072
:100480000000000000000000000000010001000169
:10049000010101010101010101010101010101014C
:1004A000010101010101010101010101000000013F
:1004B000010000000000000000000000000000003B
:1004C0000000000000000000000000000101010128
:1004D0000000000000000101010101010101010211
:1004E00002020202020202020303030303030303E4
:1004F00004040404040405050505050606060606AD
:1005000007070707080808080909090A0A0A0A0B61
:100510000B0B0C0C0C0D0D0D0E0E0F0F0F10101100
:100520001111121213131414151516161717181883
:1005300019191A1A1B1C1C1D1D1E1F1F20202122E9
:10054000222324252526272728292A2B2B2C2D2E2C
:100550002F2F30313233343536363738393A3B3C49
:100560003D3E3F4041424344464748494A4B4C4D3B
:100570004F50515253555657585A5B5C5E5F6062FC
:1005800063646667696A6C6D6E707173747678798E
:100590007B7C7E8081838486888A8B8D8F919294E8
:1005A00096989A9B9D9FA1A3A5A7A9ABADAFB1B308
:1005B000B5B7B9BBBDBFC1C4C6C8CACCCFD1D3D6ED
:1005C000D8DADCDFE1E4E6E8EBEDF0F2F5F7FAFC8F
:1005D000FF04033000000016034500720067006F3F
:1005E0000044006F007800200045005A000000160B
:1005F000034500720067006F0044006F0078002020
:100600000045005A0000000403090409023B0002EF
:100610000100A0FA090400000103010100092111F1
:100620000100012240000705810308000A090401B6
:1006300000010300000009211101000122C0000790
:1006400005820320000A1201100100000008EDFEDF
:10065000071301000102030105010902A10185023E
:100660000901A100050919012905150025019505B4
:100670007501810295017503810105010930093178
:100680001581257F95027508810609381581257F1A
:10069000950175088106050C0A38021581257F959C
:1006A0000175088106C0C005010980A101850316F6
:1006B00001002603001A81002A830075109501812C
:1006C00000C0050C0901A1018504160100269C0249
:1006D0001A01002A9C02751095018100C0050109CC
:1006E00006A1018505050719E029E71500250195F3
:1006F0000875018102050819012905950575019103
:10070000029501750391010507190029EF150025D0
:100710000195F075018102C005010906A1010507D7
:1007200019E029E715002501950875018102950159
:1007300075088101050819012905950575019102C2
:100740009501750391010507190029FF150026FF82
:1007500000950675088100C011241FBECFEFDAE0B6
:10076000DEBFCDBF13E0A0E0B1E0E8ECFFE602C0E1
:1007700005900D92A435B107D9F726E0A4E5B3E0C2
:1007800001C01D92A536B207E1F70E94A02E0C947D
:10079000E2370C94000080B38C7080BB81B3836F10
:1007A00081BB089584B1807F84B985B1807F85B98C
:1007B0008AB1837F8AB98BB1837F8BB93E98469883
:1007C0000895CF93E82F873090F5809104019091A0
:1007D0000501892B09F048C0CE2F64E670E080E463
:1007E0000E94A4189093050180930401892BD1F4F1
:1007F00064E670E082E10E94FB189093050180930B
:100800000401892B79F481E090E001C0880FCA953A
:10081000EAF764E670E080950E94FB18909305016A
:100820008093040184E690E0CF910C94501990E0FD
:10083000FC013797E730F105B8F4EA5AFF4F0C9402
:10084000D536209A289810C0219A29980DC0229A4E
:100850002A980AC0239A2B9807C0529A01C0539A2B
:100860005B9802C03E9A4698CF910895CF93873007
:1008700008F041C08091040190910501892B09F095
:1008800043C064E670E080E40E94A41890930501E0
:1008900080930401892B11F0C0E027C064E670E06A
:1008A00083E10E94FB189093050180930401892B3A
:1008B00099F764E670E081E40E94A4189093050122
:1008C00080930401892B41F784E690E00E942B1964
:1008D00097FF05C09093050180930401DDCFC82FD9
:1008E000C095109205011092040184E690E00E94E8
:1008F00050198C2F0AC09FB18FB1807F8695869545
:100900009370892B809501C080E0CF910895089560
:1009100008950C9488040E94E00590E090930501EE
:10092000809304010E94D2030E94CB0325E533E0AB
:10093000E9EAF3E04EE04E0F119280E090E0D90139
:10094000A80FB91F1C92019686309105C1F72A5F46
:100950003F4F4E13F1CF0C9414070E94E00590E036
:1009600090930501809304010E94D2030E94CB035F
:10097000E9EAF3E08EE08E0F11928E13FDCF089519
:1009800026E0829FC0011124FC01EB5AFC4F20E0BD
:1009900030E080E041E050E09081992319F09150DF
:1009A000908307C0BA01022E01C0660F0A94EAF7CD
:1009B000862B2F5F3F4F31962630310569F708951A
:1009C00096E0699FB001112420E030E090E04FE014
:1009D000FC01022E02C0F595E7950A94E2F7E0FFCC
:1009E00006C0F901E60FF71FEB5AFC4F40832F5F5B
:1009F0003F4F2630310561F70895CF92DF92EF9295
:100A0000FF920F931F93CF93DF93809104019091F6
:100A10000501892B91F0809154038F5F80935403DB
:100A200081110BC00E94E00590E090930501809336
:100A30000401892B11F40E94720589EAC82E83E013
:100A4000D82E90EBE92E93E0F92EC0E08C2F0E9477
:100A5000E10307E00C0F802F0E94E1038C2F0E941E
:100A6000C004182F8C2F0E943604F6019081D12FDC
:100A7000D095D9238123D82B6C2F8D2F89270E94C5
:100A8000E004F601D1936F01802F0E94C004182F5B
:100A9000802F0E943604F7019081D12FD095D92361
:100AA0008123D82B602F8D2F89270E94E004F70126
:100AB000D1937F010E94D203CF5FC73039F60E94E5
:100AC0001E0781E0DF91CF911F910F91FF90EF9072
:100AD000DF90CF900895E82FF0E0E755FC4F80813C
:100AE0000895089556985E9825982D9826982E98E2
:100AF00027982F988FEF90E090938900809388003B
:100B000090938B0080938A0090938D0080938C004B
:100B1000259A2D9A2FEF80E792E021508040904057
:100B2000E1F700C00000269A2E9A2FEF80E792E0AE
:100B3000215080409040E1F700C00000279A2F9A92
:100B40002FEF80E792E0215080409040E1F700C015
:100B5000000025982D982FEF80E792E021508040EB
:100B60009040E1F700C0000026982E982FEF80E714
:100B700092E0215080409040E1F700C000002798AB
:100B80002F9856985E9825982D9826982E982798F5
:100B90002F98089589EA8093800089E080938100EE
:100BA00024982C983F988AB18F7C8AB96E98479A7E
:100BB0008BB180638BB9769A0E9472050C9487047E
:100BC00080E290E090930501809304018091B70347
:100BD00081110EC00E949E1881E08093B7032FEF11
:100BE00083ED90E3215080409040E1F700C0000089
:100BF00064E670E080E40E94A4189093050180935D
:100C00000401892B09F050C064E670E080E00E9486
:100C1000FB189093050180930401892B09F044C0CF
:100C200064E670E080E00E94FB18909305018093D9
:100C30000401892BC9F564E670E08FE30E94FB187C
:100C40009093050180930401892B71F584E690E06F
:100C50000E94501964E670E080E40E94A41890930A
:100C6000050180930401892BF9F464E670E08CE0BF
:100C70000E94FB189093050180930401892BA1F435
:100C800064E670E080E00E94FB1890930501809379
:100C90000401892B49F464E670E08FE30E94FB189D
:100CA000909305018093040184E690E00E9450191E
:100CB000809104010895611108C0FC01828188239C
:100CC00021F08AE991E00E94110780E090E0089508
:100CD0008F3D2CE5920721F0803E9C4541F010C0ED
:100CE000FB018281882369F00E94DE2607C0FB0198
:100CF0008281882331F081E00E94731680E008959C
:100D000081E00895CF92DF92EF92FF926B017C0118
:100D10000E94202656985E9825982D9826982E9801
:100D200027982F9890E0FC013197E730F105A8F45F
:100D3000E35AFF4F0C94D536259A2D9A0EC0259A6A
:100D40002D9A269A2E9A09C0259A2D9A04C0259A82
:100D50002D9A269A2E9A279A2F9AC701B601FF90AC
:100D6000EF90DF90CF90089581E008950C9468068D
:100D7000CF93282F30E0F901EF52FC4FC491F901D5
:100D8000EF5AFB4F2491222359F081EE0E94541B0D
:100D90008C2F0E94541B8C2F0E946D1C81EE04C06E
:100DA0008C2F0E94541B8C2FCF910C946D1C0F9391
:100DB0001F93CF93DF93EC01062FFE0184918823CC
:100DC00059F19E012F5F3F4F813041F4E901F90154
:100DD0001491812F0E94541B812F0DC0823031F459
:100DE000E901F90184910E94541B0AC0833031F457
:100DF000E901F90184910E946D1C02C00E94B806AD
:100E00002196802F8823C9F2EFE9FFE03197F1F7AF
:100E100000C000008150F6CFDF91CF911F910F915C
:100E2000089560E00C94D7060E947026811102C0DC
:100E30000E94DE260E9419150C94CA050E947B149C
:100E40008091B803811102C00E94420E8091B803C4
:100E500090E001966BE070E00E94C1368093B80389
:100E60000C948904282F2F7041F0822F90E02A30B3
:100E700010F44D9608950697089587E290E008953E
:100E800008950C9440070C94410708950E94E01FB8
:100E90000E9445072FEF84E39CE021508040904062
:100EA000E1F700C000000C944E28FF920F931F93AF
:100EB000CF93DF938C01FC01C081D1818091150417
:100EC000811113C08281882349F0CE010E9413252D
:100ED000F82E682FCE010E94B62404C0CE010E94D5
:100EE000E624F82EBE018F2D04C0CE010E941325EA
:100EF000BE010E94140AEC01B8010E94B6068823C4
:100F000009F48AC2B801CE010E947D0C882309F43D
:100F100083C2CC3CFCE5DF0741F4F80182818823E1
:100F200009F47AC20E945A1677C2CD3C8CE5D807E4
:100F300008F01EC1C43C9CE5D90761F4F801828128
:100F4000882309F469C20E94E4258272E1F40E94B8
:100F50006F1562C2C53CECE5DE0708F0C7C0C531BD
:100F6000FCE5DF0798F0C23CFCE5DF0709F48CC024
:100F700008F492C0F8018281882309F44DC20E94CE
:100F8000E425827221F70E94551546C2C2308CE5D5
:100F9000D80708F452C0F8018281882309F459C0A7
:100FA0000E947026811102C00E94DE260E948326C4
:100FB00090E09093570680935606FE01E350FC455F
:100FC000E231F10530F4EC59FF4F809156060C9454
:100FD000D53680915606816027C0826025C0846026
:100FE00023C0806121C080621FC080641DC08068F2
:100FF0001BC08460886018C08E7F16C08D7F14C0AF
:101000008B7F12C08F7E10C08F7D0EC08F7B0CC077
:101010008F770AC08B7F877F07C087FB222720F945
:1010200091E0922790FB87F98093560680915606AF
:101030000E9487260E94E01FEFC1C1159CE5D907D9
:1010400081F0C130DC45A9F081E08093BE0380933C
:10105000BF03C801DF91CF911F910F91FF900C94B6
:10106000B406F8018281882309F4D6C10E9446079C
:10107000D3C1F8018281882309F4CEC18091B404E0
:1010800081608093B404C8C1F8018281882309F487
:10109000C3C10E944715C0C1C631DC45A9F60E94F4
:1010A000E425282FF801828140910801509109011F
:1010B000882379F02A7A91E009F490E09093B903BB
:1010C000911102C069E201C065E3CA010E9445278F
:1010D0000AC08091B903811102C069E201C065E3D1
:1010E000CA010E9450270E94B12596C1F801828151
:1010F000C83CFCE5DF0731F4882309F48DC10E9468
:10110000FB158AC1C93C9CE5D907C8F4C63CECE58F
:10111000DE0731F4882309F47FC10E94B5157CC134
:10112000C73CDC4530F4882309F476C10E94891558
:1011300073C1882309F470C10E94E5156DC1CA3CD2
:101140009CE5D90731F4882309F466C10E942B1667
:1011500063C1CB3CDC4530F4882309F45DC10E94B7
:1011600015165AC1882309F457C10E94451654C167
:10117000C43DFCE5DF07C1F4F8018281882309F44E
:101180004BC10E948216693171058105910540F0BD
:101190000E948216623271058105910508F4F3CE32
:1011A00089E10E94731638C1C53D8CE5D80708F067
:1011B00086C0F8018281C03DFCE5DF07A1F48823E9
:1011C00009F42AC10E9482166930710581059105D2
:1011D00040F00E9482166E3071058105910508F479
:1011E000D2CE89E0DECFC13D9CE5D907A0F5CE3C4B
:1011F000ECE5DE07A1F4882309F40EC10E948216F3
:10120000623071058105910540F00E9482166530BB
:1012100071058105910508F4B6CE82E0C2CFCF3CBE
:10122000DC4528F4882309F4F7C081E0BACF88238D
:1012300009F4F2C00E94821666307105810591059D
:1012400040F00E948216683071058105910508F40E
:101250009ACE86E0A6CFC23D9CE5D907A1F48823AB
:1012600009F4DAC00E948216653171058105910585
:1012700040F00E948216673171058105910508F4DE
:1012800082CE85E18ECFC33DDC45A0F4882309F4EE
:10129000C3C00E9482166F3071058105910540F030
:1012A0000E948216643171058105910508F46BCEA8
:1012B0008FE077CF882309F4AFC088E172CFC83DB3
:1012C000FCE5DF0759F5F8018281882361F010926F
:1012D000BF030E94F2279093BD038093BC0380E27A
:1012E0000E94D51C99C08091BF03882321F080E221
:1012F0000E94DC1C91C08091BC039091BD030E94B0
:10130000FE27883C910598F780E20E94DC1C88E269
:101310000E94541B88E20E946D1C7EC0C93D8CE572
:10132000D80708F058C0F8018281C63DFCE5DF0708
:1013300051F5882351F01092BE030E94F22790933A
:10134000BB038093BA0382E0CBCF0E94E42585FFE4
:1013500005C081E08093BE038093BF038091BE03EC
:1013600081110FC08091BA039091BB030E94FE27A8
:10137000883C910530F486E20E94541B86E20E946C
:101380006D1C82E0B5CFC73DDC4528F4882309F405
:1013900043C083E206CF81119ACF0E94E42581FFEA
:1013A00005C081E08093BE038093BF038091BF039B
:1013B00081119DCF8091BC039091BD030E94FE27B7
:1013C000883C910508F093CF87E20E94541B87E286
:1013D0000E946D1C8CCFCC3DECE5DE0741F4F8019A
:1013E00082818823C9F082E00E943F2F15C0CD3D45
:1013F000FCE5DF0739F4F8018281882369F00E9457
:10140000DE260AC0CB3DDC4509F01ECEF801828104
:10141000882311F080E0E8CF80E0DF91CF911F9129
:101420000F91FF900895089596E0799FF00111249F
:1014300094E5899FE00DF11D1124E60FF11DEE0FDB
:10144000FF1FE752FE4F859194910895880F991FD1
:10145000FC01EB52FE4F859194910895CF93DF9359
:101460000E94140A0E94DD0BEC01811520E5920711
:10147000F0F5811530E4930708F021C1883E91050D
:1014800000F5803E910508F094C1883A910570F40A
:10149000853A910508F0A3C08130910509F489C10E
:1014A00008F440C1049708F084C13CC18D3B91050C
:1014B00008F4A0C0803C910508F434C1805C910917
:1014C000F0C08115904258F4C11581E0D80708F0AA
:1014D00070C1C03FD10508F425C1D0656AC1C115EE
:1014E00090E3D90708F0E1C0CE019F70DAC0811502
:1014F00025E5920708F043C0811534E5930708F00D
:10150000F5C0811542E5940708F5C11581E5D807B6
:1015100008F0D8C02C2F237081E090E002C0880F23
:10152000991F2A95E2F79C689E0174E036952795ED
:101530007A95E1F72370922BCF70C695C69540E25D
:10154000C49FE0011124C82BD92B33C18695869501
:101550009E0123703327C115D34508F0B8C040E27F
:10156000849FC0011124C1E0D0E002C0CC0FDD1F78
:101570002A95E2F78C2B9D2BEC01DC681AC18115B2
:101580002AE5920798F4811539E5930708F0B9C068
:101590008115964508F4AFC0C11588E5D80708F451
:1015A000C1C0DC2FCC27C06FD06A03C1C1159BE539
:1015B000D90708F4B7C0C1152CE5D20708F4AFC0AD
:1015C000CE0190568115904208F0ACC08D2F8F71DE
:1015D0000E945A0CDD27D0628F71D82BEAC0853A61
:1015E000910509F4A2C0863A910509F0A1C0C2E8AC
:1015F000D0E4DFC0883A910509F49DC0893A91058D
:1016000009F49CC08A3A910509F49BC08B3A910574
:1016100009F49AC08C3A910509F499C08B3B910565
:1016200009F498C08C3B910509F497C08D3A910557
:1016300009F496C0803B910509F495C08E3A910556
:1016400009F494C08F3A910509F493C0813B910548
:1016500009F492C0823B910509F491C0833B910546
:1016600009F490C0843B910509F48FC0853B910536
:1016700009F48EC0863B910509F48DC0873B910526
:1016800009F48CC0883B910509F48BC0893B910516
:1016900009F48AC08A3B910509F489C0C0E0D4E40A
:1016A00088C00E94260AEC0184C0CE019927D3FF8E
:1016B00003C0EC01D86C7DC0EC01D06C7AC0DF7047
:1016C000D06A77C0DC2FCC27C16FD06A72C040E2ED
:1016D000849FC0011124C1E0D0E002C0CC0FDD1F07
:1016E0002A95E2F7C82BD92BDA6863C0D82FCC270C
:1016F000C46FD06A5EC0CF71DD27DC2FCC27D062EB
:1017000058C08F70806E90E0906A24E0D695C7959F
:101710002A95E1F7CF709C013C2BE9014AC0DD27F7
:10172000D06647C0C0E0D0E044C0C1E8D0E441C0CA
:10173000C3E8D0E43EC0C2EED4E43BC0C9EED4E47A
:1017400038C0CAEED4E435C0C5EBD4E432C0C6EB31
:10175000D4E42FC0C3EBD4E42CC0C4EBD4E429C040
:10176000C7EBD4E426C0CCECD4E423C0CDECD4E465
:1017700020C0C3E8D5E41DC0CAE8D5E41AC0C2E958
:10178000D5E417C0C4E9D5E414C0C1E2D6E411C061
:10179000C3E2D6E40EC0C4E2D6E40BC0C5E2D6E490
:1017A00008C0C6E2D6E405C0C7E2D6E402C0CAE279
:1017B000D6E4CE01DF91CF9108958238910549F1A9
:1017C000B0F48133910509F458C048F48932910589
:1017D00009F44EC08A32910509F454C00895853346
:1017E000910509F440C08933910599F00895833E2D
:1017F000910529F138F4803E910591F0823E9105E2
:10180000A1F00895863E9105F9F0873E910531F1EA
:1018100008952091560620FD3AC021FD38C0089554
:101820008091560680FD35C032C08091560682FFF9
:1018300032C08091560684FD30C083EE39C080915D
:10184000560682FD28C0F5CF8091560683FF27C03B
:101850008091560684FD21C087EE2AC080915606ED
:1018600083FD1DC0F5CF8091560685FD1AC01BC0B3
:101870008091560685FD17C014C08091560686FDDE
:1018800014C015C08091560686FD11C00EC080EEB2
:101890000FC089E30DC082EE0BC080E009C086EE68
:1018A00007C089E205C085E303C08AE201C081E385
:1018B00090E008959091560692FF0DC0282F287150
:1018C000283019F4877F846006C0282F24712430C3
:1018D00011F48B7F886093FF0DC0282F2871283169
:1018E00019F4877E846106C0282F2471243111F4F5
:1018F0008B7E886194FD877E0895CF93DF9381303E
:1019000020E8920778F0FB012281222359F0EC01B4
:101910000E94960C0E94A40CCE019F770E946C0D31
:101920000E94200D81E0DF91CF9108958091C00346
:10193000811109C08CE090E00E9437378093C10389
:1019400081E08093C0030895E0910801F0910901BE
:1019500080818093E60481FF03C081EE0E946D1CAC
:101960008091E60485FF03C085EE0E946D1C809186
:10197000E60480FF03C080EE0E946D1C8091E604A7
:1019800084FF03C084EE0E946D1C8091E60482FFF8
:1019900003C082EE0E946D1C8091E60486FF03C0A6
:1019A00086EE0E946D1C8091E60483FF03C083EEE7
:1019B0000E946D1C8091E60487FF03C087EE0E94A1
:1019C0006D1C8091C103823001F1A8F48823C9F015
:1019D000813079F580EE0E94541B81EE0E94541BE9
:1019E00088E10E94541B88E10E946D1C81EE0E94D8
:1019F0006D1C80EE1CC0843081F08530D1F486EE01
:101A000001C082EE0E94541B14C082EE0E94541B3F
:101A100087E50E94541B87E50AC086EE0E94541B8E
:101A200086EE0E946D1C88E10E94541B88E10E9492
:101A30006D1C8FE39CE90197F1F700C00000089549
:101A40008091C103813049F030F0823021F085303F
:101A500051F486EE06C082EE04C08CE20E94541B54
:101A60008CE20E946D1C8091E60481FF03C081EE30
:101A70000E94541B8091E60485FF03C085EE0E94FE
:101A8000541B8091E60480FF03C080EE0E94541B2B
:101A90008091E60484FF03C084EE0E94541B809171
:101AA000E60482FF03C082EE0E94541B8091E6048C
:101AB00086FF03C086EE0E94541B8091E60483FFDC
:101AC00003C083EE0E94541B8091E60487FF03C08D
:101AD00087EE0C94541B0895EF92FF921F93CF93BF
:101AE000DF937C01CCE0D0E097010C2E02C036954C
:101AF00027950A94E2F7122F1F70812F0E94320758
:101B00000E94541B812F0E9432070E946D1C249753
:101B1000CC3F8FEFD80741F7DF91CF911F91FF9016
:101B2000EF900895CF92DF92EF92FF920F931F9361
:101B3000CF93DF93E82FF82F711103C0682F782F10
:101B40007EC0062F10E0C72FD0E0E82EF12CC80190
:101B50006BE270E00E94AD369B0145ED4203B0019F
:101B6000439F700D1124060F171F86E0809FB00160
:101B7000819F700D11244FEF50E0CA018C1B9D0B0B
:101B80008E9DD0018F9DB00D9E9DB00D11248B2F89
:101B90006C9F80016D9F100D7C9F100D1124012FF3
:101BA00011276A01C01AD10ACE9C8001CF9C100D6A
:101BB000DE9C100D11246A01C61AD70ACC9EB00112
:101BC000CD9E700DDC9E700D1124672F7727461B6C
:101BD000570B4E9DE0014F9DD00D5E9DD00D112401
:101BE0007D2F2230310599F04CF421153105C9F0D3
:101BF00021303105A1F47E2FE12F13C023303105B0
:101C000051F02430310559F4ED2F7B2F06C0EB2F16
:101C10008D2F7F2F06C0712FEB2F8F2F02C07B2FB0
:101C2000812FF0E0EF52FB4F6491E72FF0E0EF528D
:101C3000FB4F7491E82FF0E0EF52FB4F8491DF915E
:101C4000CF911F910F91FF90EF90DF90CF9008956B
:101C500088E090E00C943F37AB01BC0188E090E055
:101C60000C945D37E7EEF4E08DE080831092E80499
:101C70008FEF82838383148260817181828193815B
:101C80000C942C0EE0914803F09149030994E091E3
:101C90004403F09145030994E0914603F091470312
:101CA000099440E060E080E00C944C0EE7EEF4E034
:101CB0006081862F881F8827881F6091E804660F3F
:101CC000682B728183810E94920D962F672F482F77
:101CD000892F0C944C0EDF92EF92FF920F931F937B
:101CE000CF93DF938091E704881F8827881F909106
:101CF000E804492F440F242F282B97FB332730F972
:101D0000C9018C549F4F68E671E00E94C136821B66
:101D1000930B8038910514F09A9505C081384FEFE8
:101D200094070CF4939597FD039695958795959553
:101D30008795C82F8091E904281B310937FF02C01D
:101D40002D5F3F4F3595279535952795D22FD0900C
:101D5000EA049CE1E92E91E0F92E00E010E0F701A1
:101D6000208122952F706091E704962F991F992763
:101D7000991F6091E804660F692B2C9F600D112458
:101D80007091E9042D9F700D11248D2D0E94920DEC
:101D9000472F282FC8010E94470E0F5F1F4FF4E006
:101DA000EF0EF11C00331105D1F6DF91CF911F9199
:101DB0000F91FF90EF90DF900895AF92BF92CF9276
:101DC000DF92EF92FF920F931F93CF93DF931F92B7
:101DD000CDB7DEB7D82E2091E704221F2227221F7D
:101DE0008091E804982F990FB22EB92A87FB882793
:101DF00080F9EB2DF82FCF018C549F4F68E671E0EE
:101E00000E94C1369C012E1B3F0B37FF02C02D5F85
:101E10003F4F3595279535952795A22EC090E9041B
:101E20000091C8031091C9032091CA033091CB03DC
:101E30009091EB04992359F0692F70E08AE090E0CB
:101E40000E94C136CB01770FAA0BBB0B04C08AE0FE
:101E500090E0A0E0B0E080239123A223B323892B5C
:101E60008A2B8B2B41F40E94273760E370E00E949D
:101E7000C136082F01C00FEFE12CF12C10E0D1107A
:101E800003C0E016F106A9F40E94273783706B2D7A
:101E90008A9D600D112469830E94273769817C2DFA
:101EA0008091EA040E94920D472F282FC7010E94BB
:101EB000470E8FEFE81AF80A80E3E816F104F9F606
:101EC0000F90DF91CF911F910F91FF90EF90DF90D6
:101ED000CF90BF90AF900895CF92DF92EF92FF9294
:101EE0001F93CF93DF938091C8039091C903A09172
:101EF000CA03B091CB030090EB0404C0880F991F74
:101F0000AA1FBB1F0A94D2F7182F8AE1C82E81E0BE
:101F1000D82EC0E0D0E09FE3E92EF12CF6018081BD
:101F20008F3FE1F0FE01E451FB4F8081F4E08F9F91
:101F3000C00111248034910524F4B701681B790B8A
:101F400002C060E070E0610F7FEF8091EA040E94C0
:101F5000920D472F282FCE010E94470E219624E094
:101F6000C20ED11CC033D105C9F6DF91CF911F91AC
:101F7000FF90EF90DF90CF900895CF92DF92EF9295
:101F8000FF920F931F93CF93DF938091C80390919B
:101F9000C903A091CA03B091CB030090EB0404C025
:101FA000880F991FAA1FBB1F0A94D2F7D82EC09082
:101FB000EA040AE111E0C0E0D0E08FE3E82EF12C62
:101FC000F80180818F3FF9F0FE01E451FB4F208141
:101FD000F4E02F9F90011124203431052CF4C70127
:101FE000821B930B9C0102C020E030E0F80161816C
:101FF0006D0D620F7FEF8C2D0E94920D472F282FC1
:10200000CE010E94470E21960C5F1F4FC033D105B1
:10201000B9F6DF91CF911F910F91FF90EF90DF9074
:10202000CF900895CF92DF92EF92FF920F931F937C
:10203000CF93DF938091C8039091C903A091CA0305
:10204000B091CB030090EB0404C0880F991FAA1F26
:10205000BB1F0A94D2F7D82EC090EA040AE111E01F
:10206000C0E0D0E08FE3E82EF12CF80180818F3FB3
:10207000F9F0FE01E451FB4F2081F4E02F9F900125
:102080001124203431052CF4C701821B930B9C01D1
:1020900002C020E030E0F80162816D0D620F7FEF39
:1020A0008C2D0E94920D472F282FCE010E94470EA3
:1020B00021960C5F1F4FC033D105B9F6DF91CF9148
:1020C0001F910F91FF90EF90DF90CF9008952F9286
:1020D0003F924F925F926F927F928F929F92AF92B8
:1020E000BF92CF92DF92EF92FF920F931F93CF9305
:1020F000DF933090E9042090EA046091C803709166
:10210000C9038091CA039091CB030E9422352BED25
:102110003FE049E450E40E94EF3520E030E040E049
:102120005CE30E94EF356B017C010E94753420E076
:1021300030E040E05DE30E94EF352B013C01C70138
:10214000B6010E945C3620E030E040EE52E40E948E
:102150007A344B015C01CCE1D1E000E010E0688111
:1021600070E080E090E00E94243520E030E040E024
:1021700052E40E940834A30192010E94EF356B01E2
:102180007C01FE013197608170E080E090E00E9468
:10219000243520E030E040EE52E40E940834A501EE
:1021A00094010E94EF359B01AC01C701B6010E946A
:1021B000093420E030E044E353E40E94EF356B0142
:1021C0007C018091E704881F8827881F9091E8048C
:1021D000292F220F622F682B97FB772770F9072E84
:1021E000000C880B990B0E9424359B01AC01C701A0
:1021F000B6010E9409340E94F334732D822D0E948F
:10220000920D472F282FC8010E94470E0F5F1F4FC6
:1022100024960033110509F0A2CFDF91CF911F91D1
:102220000F91FF90EF90DF90CF90BF90AF909F9075
:102230008F907F906F905F904F903F902F90089578
:102240002F923F924F925F926F927F928F929F92C6
:10225000AF92BF92CF92DF92EF92FF920F931F93B4
:10226000CF93DF93CDB7DEB728970FB6F894DEBFD4
:102270000FBECDBF8091E9048D839091EA049E83C7
:102280006091C8037091C9038091CA039091CB03F8
:102290000E9422352BED3FE049E450E40E94EF35E7
:1022A00020E030E040E05CE30E94EF356B017C0110
:1022B0000E9475342B013C01C701B6010E945C36B7
:1022C00069837A838B839C83ECE1F1E0F887EF8369
:1022D00000E010E0EF81F88531972080EF81F885EC
:1022E000B0803090EB04332079F0632D70E080E013
:1022F00090E00E94243520E030E040EC5FE30E9453
:10230000EF356B017C0106C0C12CD12C90ECE92E7D
:102310009FE3F92E6B2D70E080E090E00E94243561
:1023200020E030E040E052E40E9408349B01AC0120
:10233000C701B6010E94EF35A30192010E94EF355B
:102340004B015C01332079F0632D70E080E090E078
:102350000E94243520E030E040EC5FE30E94EF353E
:102360006B017C0106C0C12CD12C80ECE82E8FE3E0
:10237000F82E622D70E080E090E00E94243520E08D
:1023800030E040EE52E40E9408349B01AC01C701EA
:10239000B6010E94EF3529813A814B815C810E9410
:1023A000EF359B01AC01C501B4010E9409346B01FA
:1023B0007C018091E704881F8827881F9091E8049A
:1023C000292F220F622F682B97FB772770F9072E92
:1023D000000C880B990B0E9424359B01AC01C701AE
:1023E000B6010E9409340E94F3347D818E810E94DF
:1023F000920D472F282FC8010E94470E0F5F1F4FD5
:102400008F819885049698878F830033110509F092
:1024100061CF28960FB6F894DEBF0FBECDBFDF9117
:10242000CF911F910F91FF90EF90DF90CF90BF90D1
:10243000AF909F908F907F906F905F904F903F9064
:102440002F9008952F923F924F925F926F927F92BA
:102450008F929F92AF92BF92CF92DF92EF92FF92B4
:102460000F931F93CF93DF9300D000D01F92CDB76F
:10247000DEB72091E9042A838091EA048B8360917E
:10248000C8037091C9038091CA039091CB030E9445
:1024900022352BED3FE049E450E40E94EF3520E087
:1024A00030E040E05CE30E94EF356B017C010E946C
:1024B00075342B013C01C701B6010E945C364B010B
:1024C0005C01ACE1B1E0BD83AC8300E010E0EC81E5
:1024D000FD813197B081B983EC81FD8130802090FE
:1024E000EB04222069F0622D70E0660F771F072E43
:1024F000000C880B990B0E9424356B017C0105C0F0
:10250000C12CD12CE12C20E4F22E632D70E080E070
:1025100090E00E94243520E030E040E052E40E9448
:1025200008349B01AC01C701B6010E94EF35A3013D
:1025300092010E94EF356B017C01222021F0312CA9
:10254000220C331C03C082E0282E312CF9816F2F1E
:1025500070E080E090E00E94243520E030E040EE22
:1025600052E40E9408340E94EC349B0177FF04C0BF
:1025700022273327261B370B82E490E0821B930B24
:10258000289EB001299E700D389E700D1124072ED3
:10259000000C880B990B0E942435A50194010E9420
:1025A000EF359B01AC01C701B6010E9409346B01F4
:1025B0007C018091E704881F8827881F9091E80498
:1025C000292F220F622F682B97FB772770F9072E90
:1025D000000C880B990B0E9424359B01AC01C701AC
:1025E000B6010E9409340E94F3347A818B810E94E3
:1025F000920D472F282FC8010E94470E0F5F1F4FD3
:102600008C819D8104969D838C830033110509F094
:102610005ECF0F900F900F900F900F90DF91CF91A2
:102620001F910F91FF90EF90DF90CF90BF90AF90F0
:102630009F908F907F906F905F904F903F902F90E2
:1026400008952F923F924F925F926F927F928F9256
:102650009F92AF92BF92CF92DF92EF92FF920F9331
:102660001F93CF93DF9300D01F92CDB7DEB720909A
:10267000E9048091EA0489836091C8037091C903D9
:102680008091CA039091CB030E94223520E030E074
:1026900040E85BE30E94EF3520E030E040E653E4A1
:1026A0000E94EF352B013C01ECE1F1E0FB83EA8372
:1026B00000E010E0EA81FB8131973080EA81FB8104
:1026C000E080F090EB04FF2079F06F2D70E080E067
:1026D00090E00E94243520E030E040EC5FE30E946F
:1026E000EF354B015C0106C0812C912C90ECA92E9A
:1026F0009FE3B92E6E2D70E080E090E00E942435BB
:1027000020E030E040E052E40E9408340E94EC34C3
:102710009B0177FF04C022273327261B370BB90103
:10272000330F880B990B0E9424359B01AC01C50126
:10273000B4010E94EF352EE23DEB4BEB53EB0E94D0
:10274000EF354B015C01FF2079F06F2D70E080E0E8
:1027500090E00E94243520E030E040EC5FE30E94EE
:10276000EF356B017C0106C0C12CD12C80ECE82E2A
:102770008FE3F82E632D70E080E090E00E94243516
:10278000A30192010E9408349B01AC01C701B6016C
:102790000E94EF359B01AC01C501B4010E940834D1
:1027A0006B017C018091E704881F8827881F909126
:1027B000E804292F220F622F682B97FB772770F9E7
:1027C000072E000C880B990B0E9424359B01AC014D
:1027D000C701B6010E9409340E94F334722D898129
:1027E0000E94920D472F282FC8010E94470E0F5FAD
:1027F0001F4F8A819B8104969B838A830033110536
:1028000009F058CF0F900F900F90DF91CF911F914B
:102810000F91FF90EF90DF90CF90BF90AF909F907F
:102820008F907F906F905F904F903F902F90089582
:10283000CF92DF92FF920F931F93CF93DF931F925C
:10284000CDB7DEB7F82E0091C8031091C9032091CF
:10285000CA033091CB039091EB04992359F0692F6F
:1028600070E08AE090E00E94C136AB01770F660B02
:10287000770B04C04AE050E060E070E04023512351
:1028800062237323452B462B472B39F40E942737AD
:1028900060E370E00E94C13601C08FEF00E010E0FD
:1028A000C82ED12CF11003C00C151D0581F40E9417
:1028B000273789830E942737782F69818091EA041E
:1028C0000E94920D472F282FC8010E94470E0F5FCC
:1028D0001F4F0033110531F70F90DF91CF911F91FA
:1028E0000F91FF90DF90CF900895089508950E9472
:1028F00075140C9476144091E70440FD0AC00E94C0
:10290000510E0E9477148091E70481708093070133
:1029100008958091C203843120F48F5F8093C203B5
:1029200008958091C8039091C903A091CA03B09102
:10293000CB030196A11DB11D8093C8039093C903D9
:10294000A093CA03B093CB038091C4039091C503B5
:10295000A091C603B091C7038F3F2FEF9207A20744
:10296000B20759F00196A11DB11D8093C403909345
:10297000C503A093C603B093C7038091C303ECEED5
:10298000F4E090819F3F61F09E3F41F4282F30E0BA
:102990002230310514F0815001C080E09F5F9083A8
:1029A000319695E0EC31F90761F78093C303E42F8A
:1029B000E695EF7380910601E81307C081E09091DE
:1029C0000701913019F480E001C081E08170E0934B
:1029D000060191E0909307014E2F50E0FA013197E4
:1029E000EB30F10520F5EA58FF4F0C94D5360E94E4
:1029F000560E1DC00E9467101AC00E946B0E17C0B1
:102A00000E94DD0E14C00E946C0F11C00E94BD0F09
:102A10000EC00E9412100BC00E94201108C00E941C
:102A2000221205C00E94211302C00E9418140C94A7
:102A30007714E0914203F09143030995ECEEF4E042
:102A40008FEF819395E0EC31F907D9F70E9470265A
:102A5000811104C00E94DE260E94320E0E94280EC0
:102A60006093E7047093E8048093E9049093EA0488
:102A70006E7761F40E94320E0E94280E6093E70484
:102A80007093E8048093E9049093EA040895E7EED4
:102A9000F4E08081982F909590FB80F9808360818D
:102AA0007181828193810C942C0E9091E704892F7F
:102AB00086958F5F8F7391788C3018F4880F892BEF
:102AC00002C0892F82608093E7046091E7047091CF
:102AD000E8048091E9049091EA040C942C0E909102
:102AE000E704892F8695815C8F739178882319F08C
:102AF000880F892B02C0892F86618093E70460913B
:102B0000E7047091E8048091E9049091EA040C9440
:102B10002C0E8091E704982F991F9927991F809177
:102B2000E804880F892B90E008968F3F910519F0F3
:102B300014F08FEF90E02091E70480FB27F92093B9
:102B4000E704282F26958091E8048078822B90FB5B
:102B500087F98093E8046091E7047091E80480911C
:102B6000E9049091EA040C942C0E8091E704982FCC
:102B7000991F9927991F8091E804880F892B90E06D
:102B8000089797FF02C080E090E08F3F910519F011
:102B900014F08FEF90E02091E70480FB27F9209359
:102BA000E704282F26958091E8048078822B90FBFB
:102BB00087F98093E8046091E7047091E8048091BC
:102BC000E9049091EA040C942C0E8091E90490E0C1
:102BD00008968F3F910519F014F08FEF90E08093E5
:102BE000E9046091E7047091E8048091E904909110
:102BF000EA040C942C0E8091E90490E0089797FF6A
:102C000002C080E090E08F3F910519F014F08FEF43
:102C100090E08093E9046091E7047091E80480916A
:102C2000E9049091EA040C942C0E8091EA0490E05F
:102C300008968F3F910519F014F08FEF90E0809384
:102C4000EA046091E7047091E8048091E9049091AE
:102C5000EA040C942C0E8091EA0490E0089797FF08
:102C600002C080E090E08F3F910519F014F08FEFE3
:102C700090E08093EA046091E7047091E804809109
:102C8000E9049091EA040C942C0E8091EB0490E0FE
:102C900001968430910514F083E090E08093EB047A
:102CA0006091E7047091E8048091E9049091EA044E
:102CB0000C942C0E8091EB0490E0019797FF02C0DA
:102CC00080E090E08430910514F083E090E0809300
:102CD000EB046091E7047091E8048091E90490911D
:102CE000EA040C942C0EE7EEF4E08F73982F990F02
:102CF00080818178892B8083608171818281938139
:102D00000C942C0E6091E70466956F7370E080E080
:102D100090E0089567E784E70C945F18CF930E94D2
:102D20009E1884E70E94E41687E70E94E416C0E03C
:102D300021E041E061E08C2F0E947617CF5FC03325
:102D4000B9F767E784E7CF910C947218ECE3F6E0EB
:102D50006083418324E630E042E050E0BF01880F09
:102D60000C947419EF92FF921F93CF93DF937B0122
:102D7000182F110FC0E0D0E08C2F8C5D80933C06A3
:102D800020E030E0F901EC0FFD1FEE0DFF1D80810A
:102D9000F901E45CF94F81832F5F3F4F203131050A
:102DA00089F724E630E041E150E06CE376E0812FE2
:102DB0000E9474196096C039D105F1F6DF91CF9168
:102DC0001F91FF90EF900895CF93DF93C82F4BE0B2
:102DD0006DEF0E94A61640E06AE08C2F0E94A616B6
:102DE0008FE39CE90197F1F700C0000040E060E04C
:102DF0008C2F0E94A61640E061E08C2F0E94A61640
:102E000040E066E08C2F0E94A61640E06DEF8C2F0C
:102E10000E94A616D0E040E06D2F8C2F0E94A616CF
:102E2000DF5FD231C1F740E06D2F8C2F0E94A616D4
:102E3000DF5FD432C1F740E06D2F8C2F0E94A616C1
:102E4000DF5FD43BC1F74BE06DEF8C2F0E94A616DD
:102E500041E06AE08C2F0E94A61640E06DEF8C2FB7
:102E6000DF91CF910C94A6168033910520F5880F41
:102E7000991F880F991FFC01E652FE4F5281338142
:102E8000808183707181E0E98E9FC0011124845E8E
:102E90009A4FFC01E70FF11DB4976083FC01E50F29
:102EA000F11DB4974083830F911DFC01B4972083DB
:102EB00081E08093F1030895FF920F931F93CF93C6
:102EC000DF93182F062FF42EC0E0D0E02F2D402FD7
:102ED000612FCE010E9434172196C033D105B1F77E
:102EE000DF91CF911F910F91FF9008954F925F92C4
:102EF0007F928F929F92AF92BF92CF92DF92EF928A
:102F0000FF920F931F93CF93DF93362F54E0859F4B
:102F1000C0011124FC01E652FE4FA081A3707A2E5D
:102F2000618170E0CB0184978C0197FF02C0095F3B
:102F30001F4FA3E015950795AA95E1F7628170E010
:102F40007B0154E2E51AF108E701F7FC279673E0EC
:102F5000D595C7957A95E1F7638170E04B01E4E27E
:102F60008E1A9108F40197FC37962F0153E055947F
:102F700047945A95E1F768E0A62EB12CB5010E945E
:102F8000C1366C01C701B5010E94C1367C01C40184
:102F9000B5010E94C136A72DB0E01127DD243323EF
:102FA000A1F032E13A9FB0013B9F700D1124060F52
:102FB000171F03531C4F61E070E001C0660FCA94F5
:102FC000EAF7F8013081632B14C032E13A9FB00177
:102FD0003B9F700D1124060F171F03531C4F61E018
:102FE00070E001C0660FCA94EAF76095F80130817D
:102FF00063236083DD27FF2432E1442391F03A9F6D
:10300000A0013B9F500D1124C40FD51FC353DC4FAB
:1030100041E050E001C0440FEA94EAF73881432BC5
:1030200012C03A9FA0013B9F500D1124C40FD51F21
:10303000C353DC4F41E050E001C0440FEA94EAF78B
:103040004095388143234883A2015527992792E16F
:103050009A9FF0019B9FF00D1124E40FF51FE3539D
:10306000FC4F222361F021E030E0A90102C0440FAF
:10307000551F8A95E2F7CA019081892B0CC021E087
:1030800030E0A90102C0440F551F8A95E2F7CA013A
:10309000809590818923808381E08093CC03DF91A8
:1030A000CF911F910F91FF90EF90DF90CF90BF9045
:1030B000AF909F908F907F905F904F900895CF93A7
:1030C0009091F103992351F0C62F6CE175E00E94B5
:1030D000B2166CEA75E08C2F0E94B2161092F103C2
:1030E000CF910895EF92FF920F931F93CF93DF93A9
:1030F0009091CC039923D9F0162F082F8DECE82E50
:1031000083E0F82EC0E0D0E0F70141917F016C2F01
:10311000802F0E94A616FE01E353FC4F42896C2FBC
:10312000812F0E94A6162196C231D10569F7DF9141
:10313000CF911F910F91FF90EF9008951092B900D9
:103140008CE08093B8000895EF92FF920F931F9345
:10315000CF93DF93182FEB011092BC0084EA809389
:10316000BC000E94F2277C019091BC0097FD0EC02C
:10317000CF3F8FEFD807C1F30E94F2278E199F0926
:103180008C179D0788F38EEF9FEF2EC09091B900AA
:10319000987F983041F09091B900987F903119F064
:1031A0008FEF9FEF21C01093BB0084E88093BC0099
:1031B0000E94F2278C019091BC0097FD0CC0CF3F7C
:1031C0008FEFD807C1F30E94F227801B910B8C1759
:1031D0009D0788F3D8CF8091B900887F883111F09E
:1031E0008034F1F680E090E0DF91CF911F910F9154
:1031F000FF90EF9008950F931F93CF93DF93EB0110
:103200008093BB0084E88093BC000E94F2278C016D
:103210009091BC0097FD0EC0CF3F8FEFD807C1F350
:103220000E94F227801B910B8C179D0788F38EEF6D
:103230009FEF0CC02091B900287F81E090E02832F8
:1032400011F480E090E0919581959109DF91CF9103
:103250001F910F9108950F931F93CF93DF93EC016C
:1032600084E88093BC000E94F2278C019091BC00FE
:1032700097FD0EC0CF3F8FEFD807C1F30E94F22712
:10328000801B910B8C179D0788F38EEF9FEF03C077
:103290008091BB0090E0DF91CF911F910F91089535
:1032A0000F931F93CF93DF93EC0184E98093BC00CD
:1032B0000E94F2278C019091BC0094FF0EC0CF3F7A
:1032C0008FEFD807C1F30E94F227801B910B8C1758
:1032D0009D0788F38EEF9FEF02C080E090E0DF91C2
:1032E000CF911F910F910895CF92DF92EF92FF92AD
:1032F0000F931F93CF93DF936B017A018901B9017B
:103300000E94A418FC01892BC9F4E601EC0CFD1CF9
:10331000CE15DF0541F0B80189910E94FB18FC0130
:10332000892BB1F30BC0C801DF91CF911F910F9191
:10333000FF90EF90DF90CF900C945019CF01DF9168
:10334000CF911F910F91FF90EF90DF90CF90089554
:103350009093F7038093F6030895E091F603F091BC
:10336000F703309721F00190F081E02D099480E07F
:103370000895E091F603F091F703309799F02091CA
:103380001901222359F02091560627FF07C0DC01BE
:103390002C9111962C93119725E02C930280F381A8
:1033A000E02D09940895E091F603F091F70330972A
:1033B00039F022E0DC012C930480F581E02D0994A2
:1033C00008952091F4033091F5038217930771F06B
:1033D0009093F5038093F403E091F603F091F703E3
:1033E000309721F00680F781E02D0994089520910F
:1033F000F2033091F3038217930771F09093F30374
:103400008093F203E091F603F091F703309721F0F7
:103410000084F185E02D0994089585B7806885BF03
:1034200085B7806885BF089508950E940D1A0C9491
:10343000141A81E008950E94E9270E948B040C94DD
:103440008028CF92DF92EF92FF920F931F93CF933A
:10345000DF93CDB7DEB72B970FB6F894DEBF0FBE64
:10346000CDBF0E94FD040E94191A811111C08FEF77
:1034700089838A831B820E94F2278160782F9D8333
:103480008C8349815A816B818D810E94051B56C0B6
:1034900089EFC82E83E0D82E00E010E0E02E802FC8
:1034A0000E946B05F60141916F01F42EF82631F46C
:1034B0000F5F1F4F0E30110589F7D9CF9091B404DB
:1034C00091FF04C08B870E9471058B8520E030E05E
:1034D0004F2D50E0922FBA01022E02C075956795CC
:1034E0000A94E2F760FF24C02E83EF8221E030E0EF
:1034F000690102C0CC0CDD1C9A95E2F790E08C21AA
:103500009D21892B09F420E028870E94F227816001
:10351000782F9A8789874E815F8168858A850E9486
:10352000051BF801E750FC4F8081C826C08206C009
:103530002F5F3F4F2630310569F6BACF0E94132A1C
:103540001091F8030E94AD191817A1F00E94AD194F
:103550008093F8032B960FB6F894DEBF0FBECDBF55
:10356000DF91CF911F910F91FF90EF90DF90CF905F
:103570000C9443072B960FB6F894DEBF0FBECDBF59
:10358000DF91CF911F910F91FF90EF90DF90CF903F
:103590000895DC0111962C9111978C91682F70E0A1
:1035A00041E050E001C0440F8A95EAF712968C91F1
:1035B000129730E0882329F0809117048823E9F0DE
:1035C00006C0F901E95FFB4F90819423B1F086E0DA
:1035D000829FF001839FF00D1124E60FF71FEE0F7D
:1035E000FF1FE656FD4F808191818D939C93F901D9
:1035F000E95FFB4F8081482B06C0F901E95FFB4F73
:1036000040958081482340830895CF93DF93CDB7C1
:10361000DEB72B970FB6F894DEBF0FBECDBF942F49
:103620004F83252F588769877A878B874A855B85E3
:10363000452B21F02F3F09F59F3FF9F4DE0111964C
:1036400086E0FD0111928A95E9F785E0FE01379643
:1036500001900D928A95E1F749815A816B817C81B5
:103660008D819E810E9487222B960FB6F894DEBF33
:103670000FBECDBFDF91CF910895CE0107960E9476
:10368000C91ADCCFFC01808191810E94522592955C
:103690009F70963041F48091170491E089278093C0
:1036A0001704909316040895CF93DF931F92CDB71C
:1036B000DEB7882309F40DC1682F8238C1F40E9457
:1036C000AD1981FD06C169E380910801909109015E
:1036D0000E9445270E94B1252FEF81EE94E02150F2
:1036E00080409040E1F700C0000069E319C08338D2
:1036F00011F50E94AD1980FDECC063E580910801D1
:10370000909109010E9445270E94B1252FEF81EE7B
:1037100094E0215080409040E1F700C0000063E554
:1037200080910801909109010E9450270F90DF912C
:10373000CF910C94B1258438C1F40E94AD1982FD5B
:10374000C8C067E480910801909109010E94452753
:103750000E94B1252FEF81EE94E0215080409040EF
:10376000E1F700C0000067E4DBCF8CEF860F813A01
:1037700070F4862F69830E94492C69818111A9C048
:1037800080910801909109010E944527CFCF80E2E6
:10379000860F883048F4677081E001C0880F6A9511
:1037A000EAF70E94E725C2CF8BE5860F833088F4C5
:1037B000653A29F0663A31F083E890E005C081E887
:1037C00090E002C082E890E00F90DF91CF910C94DE
:1037D000E11988E5860F853108F071C0683A61F11A
:1037E000693A69F16A3A71F16B3A79F16C3A81F1AF
:1037F0006B3B89F16C3B91F16D3A99F1603BA1F122
:103800006E3AA9F16F3AB1F1613BB9F1623BC1F196
:10381000633BC9F1643BD1F1653BD9F1663BE1F112
:10382000673BE9F1683BF1F1693BF9F16A3B09F467
:103830003FC080E090E03EC082EE90E03BC089EE69
:1038400090E038C08AEE90E035C085EB90E032C061
:1038500086EB90E02FC083EB90E02CC084EB90E0EF
:1038600029C087EB90E026C08CEC90E023C08DEC63
:1038700090E020C083E891E01DC08AE891E01AC082
:1038800082E991E017C084E991E014C081E292E0FE
:1038900011C083E292E00EC084E292E00BC085E2A8
:1038A00092E008C086E292E005C087E292E002C0A2
:1038B0008AE292E00F90DF91CF910C94F719603F6C
:1038C00040F0862F0E941B290F90DF91CF910C941E
:1038D000082A0F90DF91CF910895882309F464C0DE
:1038E000823879F40E94AD1981FF5EC069E380914E
:1038F0000801909109010E9445270E94B12569E3C2
:1039000010C08338B1F40E94AD1980FF4DC063E54B
:1039100080910801909109010E9445270E94B125DC
:1039200063E580910801909109010E9450270C9451
:10393000B125843879F40E94AD1982FF35C067E45F
:1039400080910801909109010E9445270E94B125AC
:1039500067E4E7CF9CEF980F913A10F4682FE1CF1E
:1039600090E2980F983050F4877091E001C0990F61
:103970008A95EAF7892F0E94ED25D9CF9BE5980F0C
:10398000933020F480E090E00C94E11998E5980FD2
:10399000953120F480E090E00C94F719803F20F0FE
:1039A0000E9483290C94082A0895882321F00E94FC
:1039B000E7250C94B1250895882321F00E94ED2578
:1039C0000C94B12508958F929F92AF92BF92DF928F
:1039D000EF92FF920F931F93CF93DF937C01D62F2B
:1039E000C72FFC01058102950F70128111110E94F1
:1039F00004260E94AA25882379F0112369F080E229
:103A00008D0F883048F082E00E9493250E94AA25FD
:103A100091E0D82ED92601C0D12CAC2EA2948FE0F3
:103A2000A822B12CF501EF57FF4F0C94D5368C2FFF
:103A3000807FCF70882311F0C295C07F112399F049
:103A4000CC2309F4C8C180E28D0F883010F0D11169
:103A500004C08C2F0E94E72503C08C2F0E94F725FD
:103A60000E94B125B8C18D2F0E946D1CCC2309F492
:103A70002EC280E28D0F883010F0D11104C08C2F3F
:103A80000E94ED2503C08C2F0E94FD250E94B125C8
:103A90001EC28C2F807FCF70803211F0C295C07F04
:103AA000DD2319F0D130C9F021C0112371F00023BA
:103AB00041F0013031F40E941D268C2B0E94172604
:103AC00006C20E941D268C2B3FC1002319F0013035
:103AD00009F4FDC10E941A2611C0112321F0023001
:103AE00008F0F5C107C00111F2C108C0112321F08F
:103AF000011171C18C2F28C101117EC18C2F2AC1E7
:103B00008C2F86958695837090E0009719F0019729
:103B100061F0DDC1112321F08D2F9C2F937002C025
:103B200080E090E00E94E119E2C1112321F08D2F85
:103B30009C2F937002C080E090E00E94F719D7C1DB
:103B40001123F9F0D53F51F0D63F71F0D43FA9F4DD
:103B5000809150069091510681600BC08091500673
:103B600090915106826005C0809150069091510657
:103B7000846090935106809350068D2F0E941B29DC
:103B80001EC0D53F51F0D63F71F0D43FA9F48091CB
:103B90005006909151068E7F0BC0809150069091F7
:103BA00051068D7F05C080915006909151068B7F04
:103BB00090935106809350068D2F0E9483290E9476
:103BC000082A95C18C2F837009F050C011118BC148
:103BD0008D2F829586958770880F880F9D2F9F70F7
:103BE000892E912CA12CB12C082E04C0880C991C74
:103BF000AA1CBB1C0A94D2F7D4FF14C00FE010E03B
:103C000020E030E0B901A80104C0440F551F661F31
:103C1000771F8A95D2F7CB01BA0160957095809590
:103C2000909503C060E070E0CB01C695C695C37067
:103C3000D0E0C230D10561F0C330D10581F06829F0
:103C400079298A299B29219771F00E94CC234BC1A5
:103C5000682979298A299B290E94DE2344C10E9470
:103C6000CC23C501B4010E94BA233DC1112319F030
:103C70008C2F817001C08695882309F434C18D2F63
:103C8000829586958770880F880F9D2F9F70892E4B
:103C9000912CA12CB12C082E04C0880C991CAA1CB4
:103CA000BB1C0A94D2F7D4FF14C00FE010E020E050
:103CB00030E0B901A80104C0440F551F661F771FEB
:103CC0008A95D2F7CB01BA01609570958095909551
:103CD00003C060E070E0CB01C695C695C3704C2F61
:103CE00050E04230510569F04330510589F06829B0
:103CF00079298A299B294130510571F00E9491242C
:103D0000F2C0682979298A299B290E94A324EBC043
:103D10000E949124C501B4010E947F24E4C08D2F2C
:103D200090E0FC01E05EF109E531F10508F04FC0DB
:103D3000EF56FF4F0C94D536DF708C2F8F71112307
:103D400031F00E9418248D2F0E94D51CC0C00E9403
:103D500039248D2F0E94DC1CBAC0112339F00111C7
:103D6000B6C08C2F8F710E945E24B1C0023008F063
:103D7000AEC0F7CF112339F08C2F8F710E94182419
:103D8000A6C01123C9F38C2F8F710E9439249FC0C4
:103D9000112329F08C2F8F710E94032498C00E9458
:103DA000FE2395C0112349F0CF718C2F0E94182457
:103DB00063E08C2F0E948A258AC081E00E949325AF
:103DC000023008F484C082E00E94932580C0112351
:103DD00031F0002389F28D2F0E94541B78C00023FC
:103DE00091F2D93349F45FEF67EE73E051506040D0
:103DF0007040E1F700C000008D2F0E946D1C67C06D
:103E00004C2F4F706D2FC7010E945B060E942B2321
:103E10006EC0D23FB1F028F4D03F49F0D13FF9F065
:103E200028C0D43FB9F058F0D53F71F022C011231B
:103E300009F447C09091170481E0892708C081E008
:103E40001827109317043DC011113BC081E08093E7
:103E5000170437C0111135C01092170432C0112356
:103E600029F080911604882329F329C0002311F337
:103E700028C0809116040023C1F0882341F090915E
:103E8000170481E0892780931704109216048D2F60
:103E9000112319F00E94541B14C00E946D1C86E06F
:103EA000F70111928A95E9F70CC0882351F011119E
:103EB00008C09091170481E089278093170410921D
:103EC00016044C2F4F706D2FC7010E94130AF8E0A3
:103ED000AF16B10441F05CF04AE0A41AB10852E018
:103EE000A516B10420F40E94AD190E944307DD20FD
:103EF000E1F00E94862580FD18C0F70112820E9421
:103F000080250E941824C7010E94A11F0E948025BD
:103F1000DF91CF911F910F91FF90EF90DF90BF90B5
:103F2000AF909F908F900C943924DF91CF911F9187
:103F30000F91FF90EF90DF90BF90AF909F908F9088
:103F400008950F931F93CF93DF93EC01888199819C
:103F50002B813C81232BB9F09F3F11F48F3F99F0C7
:103F6000CE010E945507882371F0688179818A818A
:103F70000E945D258C010E94B5240E94B723B801E0
:103F8000CE010E94E31CDF91CF911F910F91089504
:103F90000E9404260E941426809108019091090134
:103FA0000E945B270E94B1250E94AE2A0E94082A27
:103FB00080E090E00E94E11980E090E00C94F71915
:103FC0000E94F4250C94C81F0E945225E92FE29507
:103FD000EF70F0E03297EE30F105B0F4EA55FF4FA4
:103FE0000C94D536803F91F018F4803E68F40EC0F2
:103FF000843F51F40BC0803E48F0813F29F406C055
:1040000093FB882780F9089580E0089581E0089562
:10401000CF93DF9300D000D01F92CDB7DEB70F90C3
:104020000F900F900F900F90DF91CF910895CF9345
:10403000DF9300D000D000D0CDB7DEB726960FB604
:10404000F894DEBF0FBECDBFDF91CF9108951F93CF
:10405000CF93DF93C091180416E080911904C8171C
:1040600099F0D0E01C9FF0011D9FF00D1124E65E39
:10407000FB4F4081518162817381848195810E94CF
:1040800017202196C770E9CFDF91CF911F91089536
:1040900040914A0450914B0460914C0470914D043E
:1040A00080914E0490914F040C94172080914F04FE
:1040B00082958F7009F054C080914C04882309F4D4
:1040C0004FC080911804A091190460914A04709126
:1040D0004B0440914D0450914E04B6E08A1709F408
:1040E0003FC090E041155105C1F17F3F11F46F3F92
:1040F000A1F1B89FF001B99FF00D1124E65EFB4FCE
:10410000218172132AC02081621327C022812111CC
:1041100024C0238134812417350710F4215031093C
:10412000241B350B283C3105C0F420914F042F701F
:10413000206120934F0426E0289FF001299FF00D75
:104140001124E15EFB4F80818F70806180838AE45F
:1041500094E00E94A11F0C94272001968770BECF87
:104160000895CF92DF92EF92FF920F931F93CF9318
:10417000DF93CDB7DEB762970FB6F894DEBF0FBE00
:10418000CDBF8C0185E0F801DE011D9601900D92F6
:104190008A95E1F7D8014C9111965C91119712968E
:1041A0006C9112971396CD90DC90149730914A043D
:1041B00070914B0480914D0490914E04009709F446
:1041C0006BC17F3F19F43F3F09F466C1E0904C0496
:1041D000EE2009F4C0C020914F04C816D90628F07B
:1041E000F601E81BF90BCF0104C0809590958C0D6A
:1041F0009D1DFF24F394883C910578F0F12C207FDD
:1042000009F0C6C07C2DD98AC88A89890E940820F5
:104210008AE494E00E94A11FB1C0822F807F09F040
:1042200046C0751314C0341312C0611110C02F7032
:10423000206120934F040E9448208AE494E00E9469
:10424000A11F80914F04D80115968C932EC0CD28C4
:1042500019F15F3F11F44F3FF9F0F62E61111CC0C8
:10426000809118042091190436E0821709F45AC08D
:1042700090E0389FF001399FF00D1124E65EFB4F6E
:104280007181571306C07081471303C07281711189
:1042900003C001968770E9CFF62E662309F427C183
:1042A00080914F04816080934F04F12C20C17513DD
:1042B00008C0341306C0611104C080914F04D801B6
:1042C000C3C04D875E878D859E856A8B0E94E41FE3
:1042D0006A898823E1F16623D1F120914F04822F6E
:1042E00082958F7090E0029774F080914A049091CB
:1042F0004B0498878F831986DB86CA862C87CE016C
:1043000007960E94A11F86E0F801AAE4B4E001909C
:104310000D928A95E1F70E9456200E944820FF24C2
:10432000F394E5C04D875E878D859E850E9452255A
:10433000292F22952F7030E0223031050CF0CBC0B0
:104340009F7009F0C5C0805E883008F4D0C0C801F5
:104350000E94A11FE4CFC816D90608F453C0F60185
:10436000E81BF90BCF01883C910508F450C0F12CF3
:104370007C2DD98AC88A89890E940820EAE4F4E061
:1043800086E0DF011D928A95E9F70E944820AFC0C0
:10439000751314C0341312C0611110C080914F0402
:1043A000F8018583C8010E94A11F86E0EAE4F4E0D9
:1043B000DF011D928A95E9F7FE2C99C04D875E8733
:1043C0008D859E856A8B0E94E41F6A89882309F483
:1043D000BECF662309F4BBCF20914F04822F829574
:1043E0008F7090E002970CF48ECF80914A049091E8
:1043F0004B049A8389831B82DD82CC822E83CE017B
:1044000001967FCF809590958C0D9D1DACCFF62E9B
:10441000662309F49CCF75132EC034132CC0209151
:104420004F0420FD1FC0822F82958F70D9F0D801D4
:1044300015962C9315978F3049F08F5F982F929592
:10444000907F822F8F70892B15968C93C8010E94C4
:10445000A11F86E0F801AAE4B4E001900D928A95CC
:10446000E1F793CF86E0F801AAE4B4E001900D9261
:104470008A95E1F73CC04D875E878D859E850E94B9
:10448000E41F811140CF80914F04816080934F04DD
:10449000C8010E94A11F2BC0662309F458CF4D8785
:1044A0005E878D859E850E94E41FF82E882309F47F
:1044B0004ECF86E0F801AAE4B4E001900D928A950F
:1044C000E1F78AE494E00E94421B0E9456205DCFEF
:1044D000811139CF0CC0243031050CF038CF9F70DA
:1044E00009F431CFF8019581907F09F02CCF8F2D01
:1044F00062960FB6F894DEBF0FBECDBFDF91CF91AD
:104500001F910F91FF90EF90DF90CF9008951F9330
:10451000CF93DF93CDB7DEB72C970FB6F894DEBFFD
:104520000FBECDBF4F83588769877A878B879C875B
:10453000CE0107960E94B120882369F08F8198856B
:104540002A853B85232BF1F19F3F09F063C08F3F04
:1045500009F060C037C086E0FE013796DE01119693
:1045600001900D928A95E1F76F817885EA85FB8548
:10457000309741F17F3F11F46F3F21F120911904F1
:1045800030E0C9010196877099274091180450E0E6
:104590008417950709F447C069837A83FD83EC8308
:1045A00096E0929FD001939FB00D1124A65EBB4F61
:1045B000FE01319601900D929A95E1F780931904CE
:1045C0000E94272016E08091180490911904891701
:1045D000C1F1189FC0011124865E9B4F0E94B1203B
:1045E000882379F1E09118041E9FF0011124E65E02
:1045F000FB4F4081518162817381848195810E944A
:1046000017208091180490E0019687709927809375
:104610001804D9CF4F81588569857A858B859C850B
:104620000E941720CFCF0E94E01F10921904109211
:104630001804EAE4F4E086E0DF011D928A95E9F7C8
:10464000C1CF2C960FB6F894DEBF0FBECDBFDF9161
:10465000CF911F910895EF92FF920F931F93CF93E5
:10466000DF938C01892B09F46CC0F12CEE24E394C8
:10467000E8012196F8018491843740F4843008F0F1
:1046800051C0813081F0823019F15BC0853709F467
:1046900044C0A8F19CE7980F903708F052C08F777C
:1046A0000E946D1C41C00E5F1F4FFE01C49180E24D
:1046B0008C0F883048F4C7708E2D01C0880FCA95C2
:1046C000EAF70E94072614C08C2F0E94541B2DC0AD
:1046D0000E5F1F4FFE01C49180E28C0F883058F4AA
:1046E000C7708E2D01C0880FCA95EAF70E940D266B
:1046F0000E94B1251AC08C2F0E946D1C16C00E5F3F
:104700001F4FFE01C491CC2381F08FE99FE00197F8
:10471000F1F700C00000C150F6CF0E5F1F4FFE0141
:10472000F49003C00E94541B8E018F2D882309F43E
:104730009FCFEFE9FFE03197F1F700C00000815013
:10474000F5CFDF91CF911F910F91FF90EF900895DA
:1047500008950C94A8230E94A92360938B0470935E
:104760008C0480938D0490938E040C94C81F08953C
:104770000C94AB230F931F9300918B0410918C0426
:1047800020918D0430918E04602B712B822B932B02
:104790001F910F910C94AB230F931F9300918B04E7
:1047A00010918C0420918D0430918E04602371232C
:1047B000822393231F910F910C94AB230F931F938C
:1047C00000918B0410918C0420918D0430918E0403
:1047D00060277127822793271F910F910C94AB2399
:1047E0000C9482060E94F0236093870470938804DF
:1047F0008093890490938A040C94C81F60E070E051
:10480000CB010C94F2230F931F9341E050E060E042
:1048100070E08A019B0104C0000F111F221F331F8B
:104820008A95D2F7C901B8011F910F910C94F22318
:104830000F931F9341E050E060E070E004C0440F2C
:10484000551F661F771F8A95D2F780918704909134
:104850008804A0918904B0918A048A019B01082BE5
:10486000192B2A2B3B2BC901B8011F910F910C94D6
:10487000F2230F931F9341E050E060E070E004C02A
:10488000440F551F661F771F8A95D2F740955095A4
:10489000609570958091870490918804A091890417
:1048A000B0918A048A019B01082319232A233B2300
:1048B000C901B8011F910F910C94F2230F931F931C
:1048C00041E050E060E070E004C0440F551F661FF7
:1048D000771F8A95D2F78091870490918804A091E0
:1048E0008904B0918A048A019B01082719272A2785
:1048F0003B27C901B8011F910F910C94F2230F932C
:104900001F930091870410918804209189043091AD
:104910008A04602B712B822B932B1F910F910C9487
:10492000F2230F931F930091870410918804209124
:10493000890430918A0460237123822393231F9179
:104940000F910C94F2230F931F9300918704109101
:1049500088042091890430918A0460277127822776
:1049600093271F910F910C94F2230895292F220F62
:10497000920F990F890FA82FA695A695A6958770D7
:1049800051E001C0550F8A95EAF785E0A89FD00154
:10499000112420E030E070E0F901EA0FFB1FE05B3A
:1049A000FB4F4081CB01022E02C0969587950A9459
:1049B000E2F7817099278195842785238427808356
:1049C0002F5F3F4F2530310539F70895292F220FEA
:1049D000920F990F890F682F669566956695982FA7
:1049E000977085E0689FB001112440E050E080E0BE
:1049F000FA01E60FF71FE05BFB4F208130E0092E44
:104A000002C0369527950A94E2F721703327042EC9
:104A100001C0220F0A94EAF7822B4F5F5F4F4530A7
:104A2000510531F70895CF92DF92EF92FF920F93E5
:104A30001F93CF93DF938C01C0908B04D0908C0494
:104A4000E0908D04F0908E0480918704909188040A
:104A5000A0918904B0918A04C82AD92AEA2AFB2A9B
:104A6000CFE1D0E0D701C6010C2E04C0B695A795C2
:104A7000979587950A94D2F780FF06C0B8018C2FCE
:104A80000E942E0A019721F4219760F780E001C06F
:104A90008C2FDF91CF911F910F91FF90EF90DF90BE
:104AA000CF900895CF93DF93EC010E941325BE01B0
:104AB0000E942E0ADF91CF9108951F93CF93DF9329
:104AC000EB0190911504992321F0CB010E9452250E
:104AD00013C0882349F0CB010E941325182F682F9B
:104AE000CE010E94B62404C0CB010E94E624182FF8
:104AF000BE01812F0E942E0ADF91CF911F91089550
:104B000080918F04859585958595089580918F0472
:104B10008770089598E0899F90011124262B209397
:104B20008F040C94182420918F0480958223809305
:104B30008F04982F977069F430E0482F082E000CEE
:104B4000550B2417350729F08595859585950C9487
:104B50003924089590918F04977081E009F480E0E2
:104B60000895E0910801F09109018091B3048083D8
:104B7000E0910801F091090190818091B204892BA4
:104B80008083E0910801F091090190818091B10446
:104B9000892B808380919004882381F0E091080123
:104BA000F09109019081892B808380910801909177
:104BB00009010E94E0268111109290048091080161
:104BC000909109010C94B9198091B30408959091C2
:104BD000B304892B8093B304089580959091B30416
:104BE00089238093B30408951092B304089590919B
:104BF000B204892B8093B204089580959091B204F9
:104C000089238093B20408951092B204089590917C
:104C1000B104892B8093B104089580959091B104DB
:104C200089238093B10408951092B104089580936C
:104C3000900408951092900408958091900408952E
:104C4000CF92DF92EF92FF926C01EE24FF24C11409
:104C5000D104E104F10421F0C701B60120E101C053
:104C600020E0C72ED82EE92EFF24C114D104E10480
:104C7000F10419F0285FC701B6016B017C0154E013
:104C8000F694E794D794C7945A95D1F7C114D104F8
:104C9000E104F10419F02C5FC701B6016B017C013E
:104CA00042E0F694E794D794C7944A95D1F7C1149B
:104CB000D104E104F10419F02E5FC701B601DC0153
:104CC000CB01B695A79597958795892B8A2B8B2B2A
:104CD00009F02F5F822FFF90EF90DF90CF90089523
:104CE00080E090E00E94453721E08D3E9E4F09F024
:104CF00020E0822F089582E090E00C94373783E023
:104D000090E00C94373784E090E00C943737682FAC
:104D100084E090E00C944B37AB01BC018FE090E055
:104D20000C945D37AB01BC0183E190E00C945D37DE
:104D300060E070E0CB010C94922660E070E0CB0163
:104D40000E948C260C9498266DEE7EEF80E090E019
:104D50000E94693760E082E090E00E944B3760E09B
:104D600083E090E00E944B3710928B0410928C04E9
:104D700010928D0410928E0460E084E090E00E9416
:104D80004B3760E085E090E00E944B3760E086E0C2
:104D900090E00E944B376FEF87E090E00E944B3726
:104DA00040E050E0BA0188E090E00E945D3760E0AA
:104DB0008DE090E00E944B370C949D260C94A42625
:104DC000FC01329680911901882331F080915606BA
:104DD00087FF02C09EE101C096E080E0915028F07C
:104DE00021912223D9F38F5FF9CF08959C01FC0113
:104DF00032969FEF80E04191461789F09F3F19F46A
:104E0000411101C0982F8F5F8630A9F79F3F39F07D
:104E1000F901E90FF11D97FDFA9562830895089550
:104E2000FC01329608962081261301C0108231962B
:104E3000E817F907C1F70895262F26952695269598
:104E40002E3168F4FC01E20FF11D677021E030E0C3
:104E500001C0220F6A95EAF78281282B22830895E8
:104E6000262F2695269526952E3170F4FC01E20F0B
:104E7000F11D677021E030E001C0220F6A95EAF76A
:104E800020958281282322830895209119012223CD
:104E900029F02091560627FD0C941C270C94F62629
:104EA00020911901222329F02091560627FD0C9408
:104EB00030270C94102720911901FC0132962223EF
:104EC00031F08091560687FF02C08EE101C086E076
:104ED000DF011D928A95E9F7089508950C946D27D6
:104EE0000E946E2780915C06843049F11092B504CF
:104EF00020E488E190E00FB6F894A89580936000D4
:104F00000FBE2093600080E00E9443070E946E273E
:104F100083B7817F846083BF83B7816083BF7894C8
:104F2000889583B78E7F83BF0FB6F894A89580913C
:104F30006000886180936000109260000FBE089549
:104F40000895CF930E94AD040E94FD040E94A02703
:104F5000C0E08C2F0E946B05811104C0CF5FCE3062
:104F6000C1F701C081E0CF91089508950C94B52751
:104F70000E94E01F0E94AD190E9443070C94B627BF
:104F80001F920F920FB60F9211248F939F93AF939E
:104F9000BF938091B504811113C080915206909106
:104FA0005306A0915406B09155064196A11DB11D1E
:104FB0008093520690935306A0935406B0935506DF
:104FC000BF91AF919F918F910F900FBE0F901F9047
:104FD000189582E084BD93E095BD9AEF97BD8093CC
:104FE0006E0008952FB7F894809152069091530661
:104FF000A0915406B09155062FBF0895CF92DF922D
:10500000EF92FF920F931F932FB7F894409152069F
:105010005091530660915406709155062FBF6A0156
:105020007B01EE24FF248C0120E030E0C016D10685
:10503000E206F30610F4415051099A01281B390B7E
:10504000C9011F910F91FF90EF90DF90CF900895CD
:1050500078941F920F920FB60F9211248F939F9303
:10506000AF93BF938091520690915306A09154063E
:10507000B09155060196A11DB11D809352069093E3
:105080005306A0935406B0935506BF91AF919F91DC
:105090008F910F900FBE0F901F901895F89481E09C
:1050A0008093E00080E28093D800E9ECF0E0108289
:1050B0008FE19EE40197F1F700C000001DBA109245
:1050C00068001CBC10BE1FBA10927A0010926E00CD
:1050D00010926F0010927100109272001082ECEB2F
:1050E000F0E0108214B817B81AB81DB810BA1082C0
:1050F00015B818B81BB81EB811BA0C94003F089523
:105100000E947026811102C00E94DE260E947B262A
:105110008093B4040E94832690E090935706809376
:1051200056060E947F26682F70E080E090E00C9485
:10513000B8238091B90480FF0BC060910D0185E018
:10514000689FB001112475956795759567952BC07B
:1051500081FF09C060910D0185E0689FB0011124B5
:105160007595679520C082FF07C060910D0185E0AD
:10517000689FB001112417C09091BA049923D1F00F
:1051800060910C01961788F720910D0185E0289F0A
:1051900090011124929FA001939F500D112470E063
:1051A000CA010E94C1366038710540F4611571056D
:1051B00039F002C065E070E0862F08958FE708950A
:1051C00081E008958091B90480FF08C060910B01CF
:1051D00070E0759567957595679521C081FF06C04C
:1051E00060910B0170E07595679519C082FF04C04E
:1051F00060910B0170E010C09091BA049923C1F046
:1052000060910A019617A0F780910B01899FC00158
:10521000112470E00E94C1366038710528F46115D0
:10522000710521F0862F08958FE7089581E0089594
:1052300061E070E0F4CF803F21F40E9499288195CD
:1052400004C0813F29F40E9499288093BE040895E8
:10525000823F21F40E949928819504C0833F29F45C
:105260000E9499288093BD040895893F19F40E94F3
:10527000E22805C08A3F31F40E94E228819580939C
:10528000BF0408958B3F21F40E94E228819504C059
:105290008C3F29F40E94E2288093C0040895843F43
:1052A00021F48091BC04816017C0853F21F4809176
:1052B000BC04826011C0863F21F48091BC048460EC
:1052C0000BC0873F21F48091BC04886005C0883FF3
:1052D00031F48091BC0480618093BC0408958D3FBB
:1052E00021F48091B90481600BC08E3F21F480913C
:1052F000B904826005C08F3F29F48091B9048460AD
:105300008093B9040895803F39F48091BE0487FFEB
:105310006CC01092BE0469C0813F29F48091BE0424
:105320001816BCF362C09091BD04823F29F497FF28
:105330005CC01092BD0459C0833F19F41916CCF318
:1053400054C0893F41F48091BF0418160CF04DC041
:105350001092BF044AC08A3F29F48091BF0487FF9E
:1053600044C0F6CF8B3F39F48091C00487FF3DC025
:105370001092C0043AC08C3F29F48091C0041816E2
:10538000BCF333C0843F21F48091BC048E7F17C0EE
:10539000853F21F48091BC048D7F11C0863F21F4AC
:1053A0008091BC048B7F0BC0873F21F48091BC04AB
:1053B000877F05C0883F31F48091BC048F7E809345
:1053C000BC0413C08D3F21F48091B9048E7F0BC0C3
:1053D0008E3F21F48091B9048D7F05C08F3F29F461
:1053E0008091B9048B7F8093B9048091BD048111B1
:1053F0000EC08091BE0481110AC08091BF0481114A
:1054000006C08091C004811102C01092BA040895B0
:105410008BEB94E00E94D3190E94F2279093B7047B
:105420008093B60408951F93CF93DF938091B604C1
:105430009091B7040E94FE27AC019091BA04992381
:1054400021F020910E0130E006C02091B8048AE0DE
:10545000289F900111244217530708F47BC08091C4
:10546000BD04C091BE04D091BF041091C00481114D
:1054700007C0C1116BC0D11169C0111167C06AC0EA
:105480009F3F19F09F5F9093BA04181624F40E946E
:1054900099288093BD048091BD0487FF05C00E94B8
:1054A000992881958093BD041C1624F40E949928A4
:1054B0008093BE048091BE0487FF05C00E94992896
:1054C00081958093BE043091BD043323E1F0209197
:1054D000BE042223C1F045EB3403C0011124892FFF
:1054E000990F990B009709F481E08093BD0435EB87
:1054F0002303C0011124892F990F990B009709F4F8
:1055000081E08093BE041D1624F40E94E22880935B
:10551000BF048091BF0487FF05C00E94E2288195E7
:105520008093BF04111624F40E94E2288093C004E3
:105530008091C00487FF05C00E94E2288195809376
:10554000C004DF91CF911F910C94082A9F3F09F06E
:1055500099CFA1CFDF91CF911F910895EBEBF4E0AC
:1055600086E0DF011D928A95E9F71092BA04109245
:10557000B9040895833081F128F4813059F08230E4
:10558000D1F00895853009F449C0B8F1863009F4A6
:1055900056C008958091B804262F30E0280F311DA1
:1055A0002F3F310524F4680F6093B80408958FEFFE
:1055B0008093B804089580910E01262F30E0280FC3
:1055C000311D2F3F310524F4680F60930E010895BB
:1055D0008FEF80930E01089580910D01262F30E00A
:1055E000280F311D2F3F310524F4680F60930D0102
:1055F00008958FEF80930D01089580910C01262F5F
:1056000030E0280F311D2F3F310524F4680F6093DF
:105610000C0108958FEF80930C01089580910B0188
:10562000262F30E0280F311D2F3F310524F4680F5D
:1056300060930B0108958FEF80930B010895809183
:105640000A01262F30E0280F311D2F3F310524F4A9
:10565000680F60930A0108958FEF80930A010895FF
:10566000833011F128F4813049F0823091F00895AF
:10567000853081F120F18630C1F108958091B80420
:10568000681720F4861B8093B80408951092B8041C
:10569000089580910E01681720F4861B80930E01F7
:1056A000089510920E01089580910D01681720F45D
:1056B000861B80930D01089510920D01089580912D
:1056C0000C01681720F4861B80930C01089510923A
:1056D0000C01089580910B01681720F4861B8093BC
:1056E0000B01089510920B01089580910A0168172B
:1056F00020F4861B80930A01089510920A010895F0
:105700000F931F93873208F04DC08E3108F093C07D
:10571000803109F47DC008F5873009F46BC068F466
:10572000863009F0A3C08091B404817F8E7F80937E
:10573000B40481E08093C2049AC08B3009F48FC016
:105740008E3009F093C08091B40482FB222720F9A7
:1057500091E0922790FB82F964C0863109F47FC002
:1057600088F4813109F082C00E94E01F80915606C2
:1057700087FB222720F991E0922790FB87F98093FD
:1057800056066DC0893109F46AC08B3109F06EC0CC
:105790008091B40481FB222720F991E0922790FBAD
:1057A00081F93FC0883309F45AC050F4893209F4B2
:1057B00058C0853309F455C0873209F452C056C029
:1057C000833409F44EC028F48A3308F44FC0895357
:1057D00033C0883409F04AC00E94E01F0FEF13ED78
:1057E00020E3015010402040E1F700C000000E947B
:1057F0004E2835C08091B404982F9095917090FBFD
:1058000080F98093B40491112AC0897F877F10C0EA
:105810008091B40483FB222720F991E0922790FB2A
:1058200083F98093B4049923D1F08091B40481600A
:105830008093B40414C08D5141E050E060E070E00A
:105840008A019B0104C0000F111F221F331F8A957C
:10585000D2F7C901B8010E94B8230E94E01F81E07D
:1058600006C061E070E080E090E0F5CF80E01F913D
:105870000F91089580E0089580E008958E518A3058
:1058800030F4E82FF0E0E65BFC4F8081089580E083
:105890000895CF93C82F8091C204813079F018F019
:1058A0008230E9F185C0E0910801F0910901808121
:1058B000813169F0823209F07DC009C0E0910801B0
:1058C000F09109018081813111F0823261F48C2FD5
:1058D0000E943A2C811104C08C2F0E94802B1DC085
:1058E00081E090E01AC08C2F0E943C2C811114C0E2
:1058F000C43179F048F4CB3079F0C03109F05EC0A2
:1059000082E08093C20408C0C93219F0C83321F084
:1059100055C01092C20452C081E0817051C0C9329A
:1059200079F108F5C43161F1A0F4C73009F044C041
:105930001092B80484E180930E01C0930D018CE3B2
:1059400080930C0188E080930B0188E280930A0128
:1059500033C082EE8C0F863078F58C2F0E943E2C5F
:105960008093C10429C0CE34E9F020F4CB3421F572
:105970006AE013C0C13579F0C235F1F461E00DC0C1
:105980008091C104882319F01092C10415C081E0F0
:105990008093C20415C061E006C08091C1040E94DA
:1059A000BA2A0AC06AE08091C1040E94302B04C068
:1059B0001092C20480E004C081E002C080E0ADCF5C
:1059C000CF9108958091E30408950F931F93CF938F
:1059D000DF9300D01F92CDB7DEB78C010E944F2F0E
:1059E000823011F0843021F584E089831B830A839F
:1059F00082E08093E9008FEF9091E800815095FD5F
:105A000006C095ED9A95F1F700008111F5CF8091D0
:105A1000E80085FF0DC040E050E063E070E0CE019B
:105A200001960E946C2F8091E8008E778093E800A9
:105A30000F900F900F90DF91CF911F910F910895CC
:105A4000CF93DF9300D01F92CDB7DEB720915C06D5
:105A5000243031F523E02983805891099B838A8380
:105A600082E08093E9008FEF9091E800815095FDEE
:105A700006C095ED9A95F1F700008111F5CF809160
:105A8000E80085FF0DC040E050E063E070E0CE012B
:105A900001960E946C2F8091E8008E778093E80039
:105AA0000F900F900F90DF91CF910895CF93DF93D8
:105AB000EC010E944F2F823011F08430F9F482E023
:105AC0008093E9009FEF8091E800915085FD06C02A
:105AD00085ED8A95F1F700009111F5CF8091E800EE
